:020000040800F2
:10000000281C0020C9000008D1000008D300000807
:1000100000000000000000000000000000000000E0
:10002000000000000000000000000000D5000008F3
:100030000000000000000000D7000008D1520008B6
:10004000DB00000800000000BD520008DB000008D3
:10005000DB000008DB000008DB000008DB00000814
:10006000000000008514000899140008AD14000871
:10007000DB000008CD530008DB0000080000000092
:10008000DB0000080000000000000000DB000008AA
:10009000DB000008DB000008DB000008DB000008D4
:1000A000DB000008DB000008DB000008DB000008C4
:1000B000DB0000080348854600F010FE00480047BA
:1000C00085770008281C0020044880470448004722
:1000D000FEE7FEE7FEE7FEE7FEE7FEE7595300080E
:1000E000B500000830B50B4601460020202201244F
:1000F00009E00D46D5409D4205D31D469540491B5C
:100100002546954040191546521E002DF1DC30BDA4
:1001100010B5202A04DB0846203AD040002110BD4B
:100120000B46D340D0402024A21A914008431946E0
:1001300010BD01464139192900D8203070470346C7
:100140000B439B0703D009E008C9121F08C0042A0B
:10015000FAD203E00B780370401C491C521EF9D2FE
:100160007047D2B201E00270401C491EFBD27047BA
:100170000022F6E710B513460A4604461946FFF773
:10018000F0FF204610BD30B505462A460B461078D4
:100190001C78521C5B1C002801D0A042F7D0002C18
:1001A00003D0002802D06D1CEFE7284630BD10B503
:1001B000044605E00B780370401C002B00D0491C5E
:1001C000521EF7D2204610BDCAB2401E4178401CD4
:1001D0008A4202D00029F9D100207047421C0178E0
:1001E000401C0029FBD1801A704710B5002200E0A6
:1001F000521C835C8C5CA34201D1002BF8D1D8B295
:10020000E1B2401A10BD03460A780270401C491C36
:10021000002AF9D11846704730B50546002003463C
:1002200000E05B1C934205D2EC5CC85C201A01D153
:10023000002CF6D130BD000070B5104D002800D163
:100240002868002414E00A4602E09E4203D0521CB3
:100250001378002BF9D1DAB2224307D0002B06D055
:10026000002C04D000210170401C04E00446401C16
:100270000678002EE7D12860204670BD700100206E
:10028000F8B50E460546002400E0641C285DFFF723
:1002900050FF0746305DFFF74CFF381A02D1295D49
:1002A0000029F2D1F8BDF7B5054600200E460446F8
:1002B00000E0641C02998C420BD2285DFFF739FFE5
:1002C0000746305DFFF735FF381A02D1295D002956
:1002D000EFD1FEBD70B5064605F0E6FB04680546A5
:1002E0000A220021304600F0BBFB2C6070BD70B5C7
:1002F000064605F0D9FB046805460A22002130466F
:1003000000F0AEFB2C6070BDF8B502464A40D40F39
:1003100042004B0052085B089A4202D2024608464D
:1003200011464A0023D0C30D4A00DDB2120EAD1AA9
:10033000202D35DA49020126490AF6058A19002CD2
:1003400000D0524220214F1B1146B9402A411018BB
:10035000C20D9A4221D0002C17D0012D08DCDA05FD
:10036000801AD20F8019D207DBB200F0B9FBF8BDBA
:10037000DA05801A012340001B06C01880185A4273
:100380008018CA0F1043490007E04908C20711430B
:10039000DA05801A80194008801800F099FBF8BD32
:1003A00061000122511A001BF7E70122D2075140D8
:1003B000AAE70122D2075040A6E770B502464A409C
:1003C000D50F40004A00ED0740085208002814D01D
:1003D000002A12D0C40DD30D41020120C0055202E3
:1003E000490A520AE41A091812187D34914201D3BD
:1003F000641C00E04900002C01DA002070BD0023DD
:10040000914201D3891A0343400849000028F7D1DB
:1004100000290AD0914202D10121C90705E0914289
:1004200001D2012101E00121C943E005C0184019B2
:1004300000F04EFB70BD0000F0B50746084658407E
:1004400087B0C00F049048000E4659004008490884
:10045000BC1A884105D2384631461E4617460B461F
:1004600002465800400810434CD0300D0390400520
:100470005900400D490D0590401A0290402872DA4B
:1004800018030121000B090508430190049800920C
:10049000002805D001995242002088410092019025
:1004A000029840210A1A0199009800F063FA054663
:1004B0000C466B4607CB00F06DFAC0197141039AE8
:1004C0000E0D0023D71756401A467A40164344D0E3
:1004D000049A002A2DD0029A012A039A15DC1205EB
:1004E000C01A914101263605001C7141D20F059EAC
:1004F000D2070093019202962A46234600F036FB6B
:1005000007B0F0BD38463146FAE71605224A0F46D5
:10051000B218C01AB74101210905001C4F4100184B
:100520007F41114618187941E20F10436D1964415B
:1005300013E0E2076D0815436408C2071443039AE9
:1005400001261205C01A91413605001C7141CE07E3
:10055000400830434908C01851412A46234600F05C
:10056000F8FACDE7FFE7049801224000C117121AFC
:1005700000238B4104983146C417381AA141EEE795
:1005800030B40124E407634030BC55E730B40124A3
:10059000E407614030BC4FE70000E0FFF0B51FB456
:1005A00088B00B990998002448400999C00F490068
:1005B00049080991C0070B990090490049080B911F
:1005C00009990898A64608431CD00B990A98084335
:1005D00018D0099801244000420D4800410D0998A7
:1005E00024050003000B204309900B980003000B27
:1005F00020430B9050181C494018002201901446CB
:10060000104605E0002001460DB0F0BD032801DAD8
:10061000034600E003239C46C11A0AAE0AE05F00CD
:1006200008ADED5B4F00F75B7D430027AA187C41C6
:10063000491C5B1E6145F2DD410004AB5A522104A6
:10064000120C0A43240C401C0828DFDB019802909E
:100650000099704601910090059B049A07990698AD
:1006600000F084FAD0E700000DFCFFFFF0B50C4667
:100670005C4085B0E40FE40703944C000026640856
:1006800059009446490802460296224321D0624608
:100690000A431ED06200570D4A000E032303550D76
:1006A000012402462C492405781B1B0B360B4018ED
:1006B00023432643614600901C46501AB44103D39D
:1006C0000098401C009002E0921800985B410028BE
:1006D00003DA0020014605B0F0BD00200121090524
:1006E0000746864611E064461D46141BB54106D3F5
:1006F0006546521BB341744607430C43A646CD07DB
:1007000040084908284392185B4105460D43EAD149
:100710001046184313D060461946504071400843B4
:1007200006D06046101AB34106D20122002306E02B
:1007300000220123DB0702E00122D243531000987C
:1007400074460105381C6141029C039D00196941F2
:1007500000F0FFF9BFE70000FD030000C217C10F62
:10076000504010B54018CA079623002100F0B8F990
:1007700010BD00000EB5C217C10F5040CA07401887
:100780000021054B0293019200910A460B4600F0AE
:10079000EDF903B000BD0000330400000EB50549BB
:1007A0000291002100910A460B46019100F0DEF90A
:1007B00003B000BD3304000070B5CD0F4A0009033B
:1007C0000123090B1B0519430B4BED070024520DA8
:1007D0009A4201DA002070BD074B34339A4203DCA1
:1007E0009A1AFFF795FC02E00449511888402C43FF
:1007F000F1D0404270BD0000FF030000CDFBFFFFC1
:100800004A0009030123090B1B051943094B10B5C5
:10081000520D9A4201DA002010BD064B34339A4241
:1008200003DC9A1AFFF774FC10BD03495118884085
:1008300010BD0000FF030000CDFBFFFFC20FD20779
:10084000400040080BD0C10D0723DB01C91840024E
:100850000905400A1143C2084007114370470020B0
:100860000146704710B5002904DB0124E40740422B
:100870008C412146002B04DB1C460123DB0752423E
:10088000A3418B4200D1824210BD000010B5002967
:1008900004DB0124E40740428C412146002B04DBA9
:1008A0001C460123DB075242A341994200D19042EA
:1008B00010BD0000CB0FDB07490010B54908024608
:1008C0000A4307D00A0D07240903E401090B121B90
:1008D000002A01DC002010BDC900440F0C43C100F8
:1008E000E018D205801800F0F3F810BD0122D207FD
:1008F000002800DB101A002900DB511A81427047E2
:100900000122D207002800DB101A002900DB511A4F
:1009100088427047F0B51FB40646002082B00546F5
:100920004024019100901BE0019922460F46304679
:10093000FFF7EEFB049A059B801A994110D31046ED
:100940001946224600F016F8361A8F4101972246C2
:1009500001200021009F00F00DF838184D41009053
:100960002046641E0028DFDC019B009829463246A1
:1009700007B0F0BD10B5202A04DB0146203A9140B3
:10098000002010BD914020239C1A0346E3401943E8
:10099000904010BD10B5202A06DBCB170846203A40
:1009A0001041C1170B4306E00B461341D0402024F1
:1009B000A21A91400843194610BD00000FB400B5BB
:1009C00089B00CA900910B990023CB60204B214AE0
:1009D00006930792042201921F4A02921F4A08922C
:1009E00002466B46002000F014FA09B008BC04B0BF
:1009F000184770B586B006460020C043019000201D
:100A000015460C460091029104903246694604A8AE
:100A1000FFF7D4FF034604982118002D05D00028C5
:100A200001D00A4600E022462A6000280DD0002BA3
:100A300002DD0098884208D0081B019000943246DD
:100A40006946029404A8FFF7B9FF06B070BD000024
:100A50006910000889100008FFFFFF7F090D0008DA
:100A6000F7B5009C0F4600262578641C002D05D0A4
:100A700000F046F90068405DC007F5D12B2D02D08B
:100A80002D2D18D0641E39462046029A00F00EFB28
:100A9000002F04D03968A14201D100993960710555
:100AA000022400290BDA4042002803DD04F0FCFF99
:100AB0000460A007FEBD012080020643E3E7002892
:100AC000F8DA04F0F1FF04600048FEBDFFFFFF7F8D
:100AD000002904DA401C490001D140084000704759
:100AE00070B40024050C05D11024000402D10029A3
:100AF00021D01124050E01D100020834050F01D1C7
:100B00000001241D850F01D18000A41C002801DBF9
:100B10004000641C002908D020252E1B0D46F540FE
:100B2000A14000D001212943084301061B1B000AF4
:100B3000DB1D02D5002070BC7047DB05181880183B
:100B40000029F8DA401C4900F5D170BC400840008B
:100B5000704710B5002B08DA0024401C6141921840
:100B60005B411A4301D14008400010BDF0B51FB4ED
:100B700082B005460C0003D0084604F059FF02E09D
:100B800004F056FF20300246009021462846FFF729
:100B9000F1FE049B059A04460F461843114308438F
:100BA00014D0184610431BD0009840210A1A18464A
:100BB0000599FFF7ADFA05460E46009A0599049887
:100BC000FFF7D8FE084305D0012004E0204639464F
:100BD00007B0F0BD0020C11705430E432C43374337
:100BE00000990E986305401A7905E40A00220C4327
:100BF000FD0A0A3002D500200146E9E70105101977
:100C000069410C9C0D9D00196941FFF7A2FFDFE7C8
:100C100070B54B005B0803430BD04B005C0D002606
:100C200033466542B341D417AD1AA34102DB00201D
:100C3000014670BD12053018514170BD4A000903CC
:100C40000123090B1B0519430A4B10B5520D9A429B
:100C500002DA0020014610BD064B34339A4203DC11
:100C60009A1AFFF755FA10BD034BD218FFF782FE10
:100C700010BD0000FF030000CDFBFFFF30B50446B0
:100C8000CD0FED070020054304D10D460121C90712
:100C90006442A941DD0FED07284304D11846012322
:100CA000DB07524283411846151B884101D209488F
:100CB00006E00120400762404B401A4300D106483D
:100CC000EFF300810902090A020E1206114381F3B3
:100CD000008830BD0000008000000060064C012547
:100CE000064E05E0E36807CC2B430C3C98471034D4
:100CF000B442F7D3FFF7E2F930B4000850B400086B
:100D0000004870470CB4000810B50446FFF7F8FF20
:100D10000068005DC007C00F10BD0000FFB5087877
:100D200085B01546FF2805D0491C2D2804D0002287
:100D3000002407E000240BE00122F9E70A235C43CA
:100D40000419491C0878FF28F8D1002A00D0644211
:100D5000002001902A7801462D2A01D02B2A04D1A7
:100D60006D1C2D2A0DD00022019200262F78FF2F16
:100D700009D00A2200236D1C00F03CFA381871419A
:100D8000F4E70122F0E7089AA218039202460A4308
:100D90000DD00024B24AB14D2646009200F076FAFA
:100DA000049003980291002807DA47421AE00021D4
:100DB00005980A4606C009B0F0BD074612E0F807DC
:100DC00007D022462B4630460099FFF7E7FB064640
:100DD000009122462B4610461946FFF7DFFB0446DA
:100DE0000D467F10002FEAD10398009B002802993E
:100DF0000498324602DAFFF739FC01E0FFF7CEFB38
:100E0000019A002A02D00122D2075140059A03C25A
:100E1000D1E7FFB591B0002009900025ED432E20C9
:100E20009E685C681F460190B9696D1C12988847DE
:100E30000090396A88470028F6D10098401C0AD0F3
:100E40000D20C0018443002E12DD00982B2809D00C
:100E50002D280DD103E00020C04315B0F0BD0120C6
:100E600080020443B9696D1C12988847761E009071
:100E700003A9600501D52D2000E02B206A461073E0
:100E8000491C0CA80F9102900AE0B9696D1C1298D8
:100E9000884700900120400204431398761E0560A5
:100EA000002E02DD00983028EFD00199009888428A
:100EB00046D18020044308E00998401E0990012093
:100EC000400204431399681C0860B9696D1C761EC2
:100ED0001298884700903028EED031E0019988427E
:100EE00005D1200603D480200443761E1EE000981E
:100EF00004F026FF002826D001204002044307A961
:100F00000F980331761E88420BD200980F99303823
:100F100008700F98401C0F90200607D50998401EB6
:100F200003E0200602D40998401C0990A00502D5D0
:100F30001399681C0860B9696D1C12988847009065
:100F4000002ECBDC59E0002E57DD0098652801D03B
:100F5000452852D1A00550D5032000028443B96929
:100F60006D1C761E129888470090002E0CDD2B28F1
:100F700004D02D2808D1FF2001300443B9696D1C2D
:100F800012988847761E0090E00501D52D2100E0DB
:100F90002B21029801700298401C0290019025E0DC
:100FA0000120400204430EA902980131761E8842B6
:100FB0000ED20098029930380006000E087003D156
:100FC0000299019881420AD90298401C029006E0D9
:100FD000E00501D5234801E0224840420990B96963
:100FE0006D1C12988847009013980560002E04DD50
:100FF000009804F0A5FE0028D2D1F969129888471C
:101000000F99FF200870029903AA087000200A9027
:101010000B900CA90AA8099BFFF780FEA00502D43B
:101020000120C04319E72420044209D0E00713D16E
:1010300038680B9A0A99031D3B60006806C00BE0F4
:101040000B990A98FFF736FC0146E00704D138688F
:10105000021D3A60006801602846FEE60000244058
:101060000000F03FF1D8FFFF4268002A08D0016875
:101070000B78491C002B03D0521E06C0184670473F
:101080000121C160881E70474268002A0BD0C368E6
:101090000168002B07D183688B4204D0491E521C83
:1010A00006C0002070470020C0437047F7B582B0EB
:1010B000029C00272078641C15460197302802D036
:1010C000002D15D015E020780127641C782804D065
:1010D000582802D0002D09D00BE0002D01D0102D92
:1010E00007D1002710252078641C02E0082500E0C5
:1010F0000A250026009610E0009901276943081888
:10110000020C294680B2714300908E183804864242
:1011100001D3012001902078641C294600F0A7F833
:101120000028E9DA0398002805D0002F01D0641EBA
:1011300000E0029C04600198002806D004F0B4FC92
:1011400002210160C81E05B0F0BD009930040843BB
:10115000F9E7FEB500231A461B1A8A4103DB00207B
:10116000014603B0F0BD4A000D0301212D0B090516
:10117000520D0D43D10702D100186D41521E51107E
:10118000FF31FF310131002704463E4638460097C3
:1011900001910246012100200905FEF7B9FFC3199C
:1011A0007141F818324684468E464A4161462846C7
:1011B000611A904104D36046241A954176461F4631
:1011C000241900986D41401C00903428E1DDF91984
:1011D00030467041091BA84103D20022D243134676
:1011E00001E00022134601980105381C7141FFF708
:1011F000B0FCB6E7F0B51FB486B0002000900190B7
:1012000002900698069980B204900798090C02048F
:101210000014114307900027089D099806913E4647
:101220003C4603900398A9B20204000C0390049872
:101230002D0C1543484300212246FFF79BFBC7199D
:10124000714110340E46402CECDB3846029AFFF711
:1012500091FB009A019B80180090594102980191DE
:10126000103002904028CCDB00980BB0F0BD3A283B
:1012700000D23038202302469A43412A01D3104637
:101280003738884201D30020C04370470EB5054A65
:1012900002920022009213460192FFF767FC03B00E
:1012A00000BD00003304000070B58C180578401CA8
:1012B0006B075B0F01D10378401C2A1106D102781D
:1012C000401C03E006780E70401C491C5B1EF9D1DF
:1012D0002B0705D40023521E0DD40B70491CFAE7CE
:1012E0000378401CCB1A921C03E01D780D70491C3A
:1012F0005B1C521EF9D5A142D8D3002070BD70B539
:1013000005466C6A606C50210840002835D1606C3D
:1013100001214902084360642068C06803218902F2
:101320000840002825D1206A002822D120680068C2
:101330000821084008281CD1206880680421084042
:10134000800800280DD1206840680C21884321685E
:101350004860606CFF2101318843012108436064CB
:1013600007E0606C202108436064A06C0121084301
:10137000A064204600F066FA03E0E06B016B2846AB
:10138000884770BD70B505466C6A606C40210843A3
:101390006064A06C04210843A064204600F059FA60
:1013A00070BD70B50446656A284600F051FA70BDFC
:1013B00038B504460025002000902068806880072A
:1013C000800F01280ED120680068C007C00F0028D8
:1013D00006D12068C0680121C9030840884201D1B4
:1013E000012000E00020002843D1206880682249C5
:1013F0000840002801D1012000E00020002809D188
:10140000606C102108436064A06C01210843A06453
:10141000012038BD20688068012108432168886068
:10142000164917480068FEF75DFE009002E000983C
:10143000401E009000980028F9D100F03DFF0546BD
:101440000EE000F039FF401B022809D9606C102122
:1014500008436064A06C01210843A0640120D8E720
:1014600020680068C007C00F01214840484000289C
:10147000E7D00020CDE700001700008040420F00B9
:101480000000002010B5092001F04AFA014800F0E0
:1014900097FB10BDE803002010B50A2001F040FAC8
:1014A000014800F08DFB10BD5C05002010B50B203D
:1014B00001F036FA014800F083FB10BD94050020CE
:1014C00010B5046863604468102C04D10468A260FD
:1014D0000468E16003E00468A1600468E26010BD94
:1014E00000200749C86107480069042108430549ED
:1014F00008610846006940210843024908617047B5
:1015000088010020002002400021084AD1610849DA
:10151000096902221143064A1161114648610969AD
:1015200040221143024A11617047000088010020E7
:10153000002002400022054BDA61054A12690123AE
:101540001A43034B1A610180704700008801002094
:10155000002002400D48C06810210840102805D125
:101560000B48C069022108430949C8610748C0689F
:1015700004210840042805D10548C0690121084319
:101580000349C86114200149C86070470020024027
:101590008801002070B5044600F08EFE05460BE081
:1015A000601C002808D0002C04D000F085FE401BF1
:1015B000A04201D9032070BD0F48C068C007C00F0A
:1015C0000028EDD10C48C06820210840202801D116
:1015D0000949C8600848C06810210840102805D093
:1015E0000548C06804210840042803D1FFF7B2FF72
:1015F0000120E0E70020DEE70020024070B504464D
:101600000025002600BF4020005D012801D10220F6
:1016100070BD01214020015500BF2068806880070F
:10162000800F01280CD1206800680840002805D1EF
:101630002068C068C9030840884201D1012000E049
:10164000002000282FD1606CFF2101318843022146
:1016500008436064206880688907084321688860BF
:1016600000F02AFE064611E000F026FE801B02284C
:101670000CD9606C0221884310210843606400BFCC
:1016800000214020015500BF0120C1E7206880688B
:10169000C00FC0070028E7D1606C022188430121F8
:1016A0000843606404E0606C202108436064012505
:1016B00000BF00214020015500BF2846A8E70000D8
:1016C000F8B504460D4600260020009001210907C8
:1016D000A06B884215D0A06B012812D0A06B022805
:1016E0000FD0A06B03280CD0A06B042809D0A06BEE
:1016F000052806D0A06B062803D0A06B072800D0D1
:1017000000BF00BF4020005D012801D10220F8BDCC
:1017100001214020015500BF206880680421084055
:101720008008002879D14349686888425AD02068E7
:10173000806A2A780121914008432168886201214A
:101740000907A06B884229D0A06B012826D0A06B86
:10175000022823D0A06B032820D0A06B04281DD022
:10176000A06B05281AD0A06B062817D0A06B0728FD
:1017700014D0A868216849694907490F88420DD0EB
:1017800020684069C008C00021684861206840693D
:10179000297A4907490F08432168486128681028B9
:1017A00002D0286811283DD1234880682968102973
:1017B00001D1C90400E0112108431F49886028684D
:1017C00010282FD11D491E480068FEF78BFC0A2106
:1017D0004843009002E00098401E009000980028C6
:1017E000F9D11FE02068806A2A780121914088435E
:1017F000216888622868102802D02868112811D131
:101800000D4880682968102902D1C90401E004E06C
:10181000112188430849886004E0606C2021084356
:101820006064012600BF00214020015500BF304602
:101830006DE70000011000000027014040420F004A
:10184000000000200121014A11707047A40000200F
:101850007047704770B5044600260025002C01D162
:10186000012070BD606C002806D1A06400214020DA
:101870000155204600F0C6F8606C10210840002891
:101880007ED1002EFCD120688068042108408008A9
:101890000028F5D1606C8901884302210843606407
:1018A000206880688007800F01280DD120680068BB
:1018B000C007C00F002805D12068C0688903084010
:1018C000884201D1012000E0002000280FD12068CB
:1018D000C06818218843A16808432168C86020684F
:1018E00000698000800861680843216808612068F9
:1018F000C068424908402168C860A0698003E16966
:10190000C9030843216A49030843616B012902D0D6
:101910000121090300E000210843E168084321692F
:10192000022901D1042100E000210843216B490074
:1019300008430543606A012805D1206A002802D1C6
:10194000012000040543FF21C231A06A884203D070
:10195000E16AA06A084305432068C06828432168FB
:10196000C86001210907A06B884216D0A06B01282E
:1019700013D0A06B022810D0A06B03280DD000E07C
:1019800034E0A06B042808D0A06B052805D0A06B1C
:10199000062802D0A06B07280DD120684069C00836
:1019A000C0002168486120684069218F4907490FBC
:1019B0000843216848612068C06811490840A8426E
:1019C00008D10020A064606C0221884301210843F3
:1019D000606410E0606C0221884310210843606459
:1019E000A06C01210843A064012604E0606C102172
:1019F000084360640126304633E700001902FEFF09
:101A0000E7FF3F8310B586B004462049206888422E
:101A100039D100BF1E488069491508431C498861B7
:101A20000846806949150840009000BF00BF0120AA
:101A30000190032002900020039001A90920C00614
:101A400000F038FB1348144908600020486000216A
:101A5000114881608021C1604900016189004161B4
:101A6000202181610902C16100F0DCF900BF0A4850
:101A7000E063446200BF002211460C2000F068FFC2
:101A80000C2000F059FF06B010BD000000240140FA
:101A90000010024008000240E8030020F8B50446A8
:101AA0000D461646002720688068042108408008FB
:101AB000002848D100BF4020005D012801D102204C
:101AC000F8BD01214020015500BFE069012803D085
:101AD0002046FFF76DFC0746002F35D1606C1B498F
:101AE0000840FF210131084360640020A06400BF6A
:101AF00000214020015500BF1548E16B8862154860
:101B0000E16BC8621448E16B08631C20216808601F
:101B10002068406810210843216848602068C06838
:101B2000012108432168C8602268114640313346CC
:101B30002A46E06B00F0A4F920688068042108437D
:101B40002168886000E002273846B9E7FEF1FFFF10
:101B5000FF120008A31300088513000870B504469F
:101B6000002520680068400840002168086000F0F7
:101B7000A3FB054614E000F09FFB401B7D21C9003C
:101B800088420DD9606B2021084360630321212026
:101B9000015500BF00212020015500BF032070BD6A
:101BA00020680068C007C00F0028E4D1012121206F
:101BB000015500BF00212020015500BF0020EEE7A5
:101BC00010B5044696480068954A0832216891424B
:101BD00001D1082117E0924A1C322168914201D1BB
:101BE000802110E08E4A30322168914201D1C9141F
:101BF00009E08B4A44322168914202D10121C90394
:101C000001E00121C904084000283ED02068006896
:101C100008210840C008002837D0206800688843A1
:101C2000216808607E4908312068884201D1082077
:101C300017E07B491C312068884201D1802010E0E8
:101C4000774930312068884201D1C01409E07449D5
:101C500044312068884202D10120C00301E0012004
:101C6000C0046F494860606B012108436063042130
:101C70002120015500BF00212020015500BF206B0D
:101C8000002802D02046216B884765480068644AD6
:101C900008322168914201D1042117E0604A1C32C8
:101CA0002168914201D1402110E05D4A3032216823
:101CB000914201D1091509E0594A44322168914203
:101CC00002D10121890301E0012189040840002893
:101CD0003CD020680068042108408008002835D0E6
:101CE0002068006820210840002805D1206800688D
:101CF00004218843216808604949083120688842E6
:101D000001D1042017E046491C312068884201D1E6
:101D1000402010E0424930312068884201D100154E
:101D200009E03F4944312068884202D10120800304
:101D300001E0012080043A49486011212120015529
:101D4000E06A002802D02046E16A884734480068EB
:101D5000334A08322168914201D1022117E0304A0A
:101D60001C322168914201D1202110E02C4A3032EE
:101D70002168914201D1491509E0294A443221687C
:101D8000914202D10121490301E0012149040840A7
:101D9000002843D02068006802210840400800283D
:101DA0003CD02068006820210840002805D1206828
:101DB00000680221884321680860194908312068B9
:101DC000884201D1022017E015491C312068884261
:101DD00001D1202010E0124930312068884201D121
:101DE000401509E00E4944312068884202D10120A3
:101DF000400301E00120400409494860606B6063D2
:101E000001212120015500BF00212020015500BFE4
:101E1000A06A002802D02046A16A884710BD0000B1
:101E20000000024001460022002901D10120704734
:101E30002120405C002802D10023202043540223AB
:101E400021204354086802680C4802408B684868A7
:101E50001843CB6818430B6918434B6918438B69C7
:101E60001843CB69184302430868026000204863A6
:101E70000123212043540020D9E700000FC0FFFFB9
:101E8000F8B504460D4616461F4600BF2020005DEB
:101E9000012801D10220F8BD01212020015500BFF9
:101EA0000221212001552068006840084000216877
:101EB00008603B46324629462046FFF701FB206872
:101EC0000068022108432168086020680068042136
:101ED00008432168086020680068082108432168D9
:101EE000086020680068012108432168086000201C
:101EF000D1E731B5002400F0DFF9044600BF00F05F
:101F0000DBF9001B00998842F9D338BDF8B50446C7
:101F10000E460127002500BF2448007E012801D17C
:101F20000220F8BD01202149087600BF2068012861
:101F300011D11F48FFF72EFB002830D1FFF7D0FA50
:101F40001B48FFF727FB07461A480069042188430E
:101F50001849086123E01648FFF71CFB00281ED132
:101F6000401E3060656813E02846FFF7CDFA104840
:101F7000FFF710FB07460F480069022188430D490F
:101F80000861002F01D0356008E0012080022D1883
:101F9000A168890260684018A842E5D800BF00BF68
:101FA00000200249087600BF3846BAE788010020C1
:101FB00050C300000020024003480069802108430C
:101FC000014908610020704700200240F0B51FB4AD
:101FD00086B0074615461E460120039000240020C7
:101FE000029000BF2548007E012802D102200BB0DC
:101FF000F0BD01202149087600BF2148FFF7CAFA49
:1020000003900398002831D1012F02D101200290C2
:1020100006E0022F02D10220029001E0042002908B
:1020200000241FE022012846314604960595FEF75C
:102030006FF880B26100019007980818009001992C
:10204000FFF778FA0E48FFF7A5FA03900D480069EC
:10205000400840000B4908610398002800D004E0C4
:10206000601CC4B202988442DCDB00BF00BF0020C9
:102070000249087600BF0398B9E7000088010020F4
:1020800050C300000020024007480069802108403A
:10209000002805D00548044948600548486001E02B
:1020A000012070470020FCE7002002402301674523
:1020B000AB89EFCD78B50346002200240020DEE096
:1020C000012696400D6835402C46002C7ED04D6888
:1020D000022D02D04D68122D15D1D508AE001D4637
:1020E0002035A8595507EE0E0F25B5400646AE43DC
:1020F00030465607F60E0D69B5402843D508AD00A9
:102100001E4620367051186856000325B540064615
:10211000AE4330460D79AD07AD0F5600B5402843AC
:1021200018604D68012D08D04D68022D05D04D680E
:10213000112D02D04D68122D18D198685600032534
:10214000B5400646AE4330465600CD68B5402843FC
:1021500098605868012595400646AE4330461026E3
:102160004D6835402D09954028435860D868560081
:102170000325B5400646AE43304656008D68B5404F
:102180002843D860012636074D683540B54275D1E1
:1021900000BF3E4DAD69012635433C4EB561354625
:1021A000AD69ED07ED0F009500BF00BF384D9608F3
:1021B000B600A85995072E0F0F25B5400646AE4329
:1021C00030460925ED06AB4203D100E056E000257C
:1021D0000FE0304DAB4201D101250AE02E4DAB425C
:1021E00001D1022505E02D4DAB4201D1032500E0D0
:1021F00005259607360FB5402843254D9608B600AD
:10220000A851274D28680546A543284601263604CF
:102210004D683540B54202D1054625432846204D3C
:10222000286068680546A5432846012676044D685F
:102230003540B54202D1054625432846184D686011
:10224000A8680546A5432846012636054D68354051
:10225000B54202D1054625432846114DA860E868DD
:102260000546A5432846012676054D683540B5420A
:1022700002D1054625432846094DE860521C0D68E9
:10228000D540002D00D01BE778BD000000100240B3
:10229000080001400004004800080048000C004805
:1022A0000004014042694A4042617047002A01D05F
:1022B000816100E08162704701480068704700005A
:1022C0001400002002463520805C02280FD0352003
:1022D000805C12280BD03520805C222807D0352066
:1022E000805C322803D03520805C422801D1022056
:1022F000704700BF3420805C012801D10220F7E73D
:1023000001233420835400BF0223352083541068F6
:1023100000684008400013681860106800680123D6
:102320001B0398431368186010680068084313681B
:1023300018601068006801231843136818600123AF
:102340003520835400BF00233420835400BF002075
:10235000CEE7000010B50446002C01D1012010BDCD
:102360003520005D002805D100213420015520468C
:1023700000F064FA02213520015520680068400809
:102380004000216808600F210906606888432168C1
:102390000861206880680121C9038843216888603A
:1023A000A06800280FD0E068012806D10121C903E8
:1023B000A06808432168886005E021218902A0689F
:1023C000084321688860E068022802D18002216801
:1023D0004860206840680F49084321684860616987
:1023E00020690843A169090208432168C860216A7D
:1023F000E0690843216808602068006801210843FB
:10240000216808600020A0630121352001550020CB
:10241000A5E7000000800002FFB581B00446164623
:102420001D4600273520005D01287DD1002E01D0FA
:10243000002D02D1012005B0F0BD20688069012186
:10244000C9030840C00B002801D00220F3E700BFF9
:102450003420005D012801D10220ECE70121342065
:10246000015500BF2221352001550020A063FF2D1A
:102470000BDD0920800201231B06FF22009020466D
:10248000029901F06DFFFF270AE009208002EAB2FD
:1024900001235B0600902046029901F061FF2F4660
:1024A00000BF0022042120460A9B01F071FF002892
:1024B00001D00320BFE72068406A3070761C7F1E81
:1024C000681E85B2002F22D1002D20D0002280214D
:1024D00020460A9B01F05CFF002801D00320AAE7F8
:1024E000FF2D0ADD002001231B06FF22009020465D
:1024F000029901F035FFFF2709E00020EAB201232D
:102500005B0600902046029901F02AFF2F46002D1D
:10251000C7DC1921204601F090FF002807D0A06BEE
:10252000042802D1012086E714E0032083E720205D
:102530002168C861206840680749084021684860F0
:1025400001213520015500BF00213420015500BF75
:10255000002070E702206EE700E800FEFFB583B0C0
:10256000044616461D460C9F002002903520005D53
:1025700001287DD1002E01D0002D02D1012007B00D
:10258000F0BD206880690121C9030840C00B002804
:1025900001D00220F3E700BF3420005D012801D103
:1025A0000220ECE701213420015500BF1221352023
:1025B00001550020A063FF2D0BDD01204003C30265
:1025C000FF2200902046049901F0CAFEFF200290ED
:1025D00009E001204003EAB2030300902046049979
:1025E00001F0BEFE029500BF3946204601F053FFC0
:1025F000002806D0A06B042801D10120BFE70320EA
:10260000BDE7307821688862761C0298401E0290EF
:10261000681E85B20298002823D1002D21D03B46A8
:1026200000228021204601F0B3FE002801D00320C3
:10263000A5E7FF2D0BDD002001231B06FF220090E4
:102640002046049901F08CFEFF20029009E0002052
:10265000EAB201235B0600902046049901F080FE57
:102660000295002DC0DC3946204601F0E6FE00E070
:102670001BE0002806D0A06B042801D101207EE7D2
:1026800003207CE720202168C86120684068084951
:1026900008402168486001213520015500BF002114
:1026A0003420015500BF002069E7022067E70000E1
:1026B00000E800FEFFB583B004460E9F0C9E0D9D02
:1026C000002002903520005D012877D1002E01D036
:1026D000002D02D1012007B0F0BD206880690121E2
:1026E000C9030840C00B002801D00220F3E700BF57
:1026F0003420005D012801D10220ECE701213420C3
:10270000015500BF5221352001550020A0630097DC
:10271000204604A90EC901F0DDFD002810D0A06BF1
:10272000042806D100BF00213420015500BF01203C
:10273000D1E700BF00213420015500BF0320CAE7C4
:10274000FF2D0BDD002001231B06FF2200902046F9
:10275000049901F005FEFF20029009E00020EAB292
:1027600001235B0600902046049901F0F9FD0295D3
:1027700000BF3946204601F08EFE002806D0A06B2F
:10278000042801D10120A6E70320A4E730782168BE
:102790008862761C0298401E0290681E85B20298DC
:1027A000002824D1002D22D03B4600228021204643
:1027B00001F0EEFD002802D003208CE739E0FF2D68
:1027C0000BDD002001231B06FF2200902046049908
:1027D00001F0C6FDFF20029009E00020EAB20123CB
:1027E0005B0600902046049901F0BAFD0295002D89
:1027F000BFDC1921204601F020FE002806D0A06B86
:10280000042801D1012066E7032064E72020216825
:10281000C861206840680849084021684860012173
:102820003520015500BF00213420015500BF002094
:1028300051E702204FE7000000E800FE10B586B027
:1028400004461249206888421ED10320800201906C
:102850001220029001200390002004900120059096
:1028600001A90B48FFF726FC00BF0A48C0690121F7
:10287000890508430749C8610846C06901218905DF
:102880000840009000BF00BF06B010BD00580040D7
:10289000000400480010024002480068401C014942
:1028A000086070471400002010B506480068102129
:1028B000084304490860002000F006F800F018F80A
:1028C000002010BD0020024070B5044600F050FA10
:1028D00006467D21C900FDF705FC054601F098F884
:1028E00000222146501E00F033F8002070BD000089
:1028F00008B500BF0948806901210843074988617C
:1029000008468069C007C00F009000BF00BF0022CA
:102910001146501E00F01CF808BD000000100240D7
:1029200000BFC206D20E01219140024A116000BFD1
:102930007047000080E200E000BFC206D20E012115
:102940009140024A116000BF7047000000E100E0C2
:1029500070B504460D4616462946204602F036FC60
:1029600070BD000000BF00BF00BF00BF00BFBFF3CD
:102970004F8F00BF00BF00BF06480749C86000BFB7
:1029800000BF00BFBFF34F8F00BF00BF00BF00E01C
:1029900000BFFDE70400FA0500ED00E00348006811
:1029A000FF21013108430149086070470070004071
:1029B00010B5024600200E4B1868800880000346C0
:1029C000134318460A4B18600A4B1B69042423431F
:1029D000084C2361012901D130BF02E040BF20BF74
:1029E00020BF044B1B690424A343024C236110BD88
:1029F0000070004000ED00E0F8B504460025002618
:102A00000121090420680840884266D14148006AD3
:102A10000321090208400322120261681140884222
:102A20005BD000BF3B48C069012109070843394911
:102A3000C8610846C06909040840009000BF00BF93
:102A4000354800680915084333490860FFF734FC2E
:102A5000054606E0FFF730FC401B642801D903203F
:102A6000F8BD2D480068FF21013108400028F1D051
:102A70002848006A03210902884306462548006A5F
:102A8000012109040843234908620846006A01211C
:102A9000090488431F490862084606620220304044
:102AA000002811D0FFF708FC054607E0FFF704FCFB
:102AB000401B1A49884201D90320D1E71548006A12
:102AC000022108400028F1D01248006A03210902BF
:102AD0008843616808430F4908622078C007C00F27
:102AE000002807D00B48006B80088000A1680843CD
:102AF00008490863202120680840202807D105489C
:102B0000006B10218843E1680843024908630020F4
:102B1000A6E700000010024000700040881300008B
:102B200070B504460D4600268E480068C007C00FE9
:102B3000A84271D28B480068400840002843894968
:102B4000086008460068C007C00FA84201D00120F5
:102B500070BD022120680840022807D182484068E1
:102B6000F0218843A16808437F4948602078C00766
:102B7000C00F00283CD06068012808D17A4800685E
:102B8000012149040840002815D10120E0E76068D0
:102B9000022808D17448006801214906084000282D
:102BA00009D10120D4E770480068022108400028BC
:102BB00001D10120CCE76C48406880088000616842
:102BC000084369494860FFF777FB064660680128BB
:102BD0000FD107E0FFF770FB801B6449884201D9E1
:102BE0000320B5E7604840680C2108400428F1D173
:102BF000A4E06068022810D107E0FFF75DFB801BAE
:102C00005A49884201D90320A2E7574840680C215D
:102C100008400828F1D191E00FE007E0FFF74CFBF6
:102C2000801B5249884201D9032091E74E484068F1
:102C30000C2108400028F1D180E0022120680840E2
:102C4000022807D148484068F0218843A16808431A
:102C5000454948602078C007C00F00285FD06068F1
:102C6000012808D140480068012149040840002893
:102C700015D101206CE76068022808D13A48006845
:102C8000012149060840002809D1012060E73648A3
:102C9000006802210840002801D1012058E732488D
:102CA000406880088000616808432F494860FFF74A
:102CB00003FB0646606801280FD107E0FFF7FCFA26
:102CC000801B2A49884201D9032041E726484068F1
:102CD0000C2108400428F1D121E0606802280FD1BE
:102CE00007E0FFF7E9FA801B2049884201D9032059
:102CF0002EE71D4840680C2108400828F1D10EE05D
:102D000007E0FFF7D9FA801B1849884201D9032050
:102D10001EE7154840680C2108400028F1D11148F1
:102D200000684008400028430E49086008460068D3
:102D3000C007C00FA84201D0012009E70421206884
:102D40000840042808D10848406807210902884340
:102D5000E1680843044948600020FFF7B5FD002002
:102D6000F6E6000000200240001002408813000038
:102D700010B500F025F806494968F022114009090C
:102D8000044A515CC840044908600846006810BD08
:102D900000100240E0B200080000002010B5FFF76C
:102DA000E7FF05494968072212021140090A034A50
:102DB000515CC84010BD000000100240E0B20008A5
:102DC000F0B589B024A001460EC9C06805AC0EC498
:102DD000089025A001460EC9C06801AC0EC404903D
:102DE0000024002700250026002000902248446887
:102DF0000C202040002827D0042802D0082822D107
:102E000002E01E48009022E00F2080042040800C49
:102E100005A90E5C1848C06A0007000F01A90F5CE5
:102E200001200004204001210904884206D13946CE
:102E30001248FDF757F97043054602E01048354641
:102E40004543009503E000BF0C48009000BF00BF61
:102E5000009809B0F0BD0000020304050607080948
:102E60000A0B0C0D0E0F10100102030405060708D3
:102E7000090A0B0C0D0E0F100010024000127A0010
:102E800000093D0038B5044600252078C007C00F72
:102E900000286FD0FE4840680C21084004280BD061
:102EA000FB4840680840082812D1F94840680121D1
:102EB0000904084088420BD1F54800680121490403
:102EC00008400028E5D06068002853D1012038BDB3
:102ED00000BFEF480068012109048843EC490860FD
:102EE00008460068012189048843E949086000BF59
:102EF000FFF7E2F9054607E0FFF7DEF9401BE54979
:102F0000884201D90320E2E7E14800680121490431
:102F100008400028F0D100BF6068012806D1DC48D5
:102F2000006849100843DA49086032E06068002808
:102F30000ED1D7480068012109048843D4490860AC
:102F400008460068012189048843D149086020E0CF
:102F5000606805280FD1CE48006801218904084324
:102F6000CB49086008460068012109040843C849A4
:102F700008600EE038E0C648006801210904884373
:102F8000C349086008460068012189048843C04994
:102F9000086000BF6068002813D0FFF78DF9054670
:102FA00007E0FFF789F9401BBA49884201D903209D
:102FB0008DE7B74800680121490408400028F0D097
:102FC00012E0FFF779F9054607E0FFF775F9401BB6
:102FD000B049884201D9032079E7AD480068012152
:102FE000490408400028F0D1022120680840022846
:102FF00061D1A74840680C21084000280BD0A448A4
:103000004068084008281BD1A148406801210904F4
:103010000840002814D19E4800680221084000287A
:1030200004D0E068012801D0012050E798480068EA
:10303000F82188432169C9000843954908603AE0AE
:10304000E068002820D09248006801210843904998
:103050000860FFF731F9054606E0FFF72DF9401B40
:10306000642801D9032032E789480068022108401A
:103070000028F2D086480068F82188432169C900F9
:1030800008438349086016E0814800684008400012
:103090007F490860FFF710F9054606E0FFF70CF9D5
:1030A000401B642801D9032011E7794800680221F8
:1030B00008400028F2D1082120680840082831D1B2
:1030C000206A002817D07248406A012108437049DD
:1030D0004862FFF7F1F8054606E0FFF7EDF8401B00
:1030E000642801D90320F2E66948406A02210840B9
:1030F0000028F2D016E06648406A40084000644963
:103100004862FFF7D9F8054606E0FFF7D5F8401BFF
:10311000642801D90320DAE65D48406A02210840AC
:103120000028F2D1042120680840042870D100BF93
:103130005748C069890608435549C8610846C069AF
:1031400009040840009000BF00BF534800680915FB
:10315000084351490860FFF7AFF8054606E0FFF75E
:10316000ABF8401B642801D90320B0E64A48006848
:10317000FF21013108400028F1D000BF4448006A17
:1031800040084000424908620846006A042188431A
:103190003F49086200BFFFF78FF8054607E0FFF7D9
:1031A0008BF8401B3B49884201D903208FE6384801
:1031B000006A022108400028F1D100BFA068012860
:1031C00006D13348006A01210843314908622CE0E6
:1031D000A06800280CD12E48006A400840002C4905
:1031E00008620846006A04218843294908621CE0F5
:1031F000A06805280DD12648006A04210843244907
:1032000008620846006A01210843214908620CE06F
:1032100034E01F48006A400840001D490862084623
:10322000006A042188431A49086200BFA068002888
:1032300012D0FFF741F8054607E0FFF73DF8401BC5
:103240001449884201D9032041E61148006A02214D
:1032500008400028F1D011E0FFF72EF8054607E0FE
:10326000FFF72AF8401B0B49884201D903202EE6BC
:103270000748006A022108400028F1D11021206887
:103280000840102860D1606901282DD1004805E070
:10329000001002408813000000700040406B0421C1
:1032A0000843624948630846406B012108435F496F
:1032B0004863FFF701F8054606E0FEF7FDFF401BF7
:1032C000642801D9032002E65848406B02210840D7
:1032D0000028F2D05548406BF8218843A169C90005
:1032E0000843524948632FE06069401D00280FD110
:1032F0004E48406B042188434C4948630846406B64
:10330000F8218843A169C9000843484948631BE084
:103310004648406B04210843444948630846406BD3
:10332000400840004863FEF7C7FF054606E0FEF789
:10333000C3FF401B642801D90320C8E53B48406B0C
:10334000022108400028F2D1606A00286CD037487A
:1033500040680C210840082864D0606A022847D1E0
:103360003248006801210906884330490860FEF7A9
:10337000A3FF054606E0FEF79FFF401B642801D926
:103380000320A4E5294800680121490608400028D7
:10339000F1D100BF2548C06A00090001216B084334
:1033A0002249C862A16AE06A0843204949683D226F
:1033B0001204914308431D49486000BF0846006855
:1033C00001210906084319490860FEF775FF054603
:1033D00006E0FEF771FF401B642801D9032076E563
:1033E000124800680121490608400028F1D01BE07E
:1033F0000E4800680121090688430C490860FEF761
:103400005BFF054606E0FEF757FF401B642801D925
:1034100003205CE5054800680121490608400028B2
:10342000F1D101E0012052E5002050E500100240FA
:103430007047000010B504462068C068FF210131C4
:103440000840000A002810D0206880680901084060
:1034500000280AD02046FFF7EBFF2068C0688021D3
:103460000840054908432168C86001204004034919
:1034700048610120607710BD7FFEFFFF000401401E
:1034800010B50446002C01D1012010BD607F00283A
:1034900003D12077204600F051F80220607700BF6A
:1034A000CA202168486253202168486200BF204634
:1034B00001F0E2FE002808D000BFFF20216848622A
:1034C00000BF042060770120DFE7206880681A4988
:1034D0000840216888602169606808436169084381
:1034E000216889680843216888602168E06808616C
:1034F000206800692189090408432168086120685F
:10350000C068802188432168C8602068006C012160
:1035100089048843216808642068006CA169084315
:103520002168086400BFFF202168486200BF0120B5
:1035300060770020A9E70000BFFF8FFF38B5044681
:103540001249206888421FD100BF1148C06901217B
:10355000090708430E49C8610846C06909040840C4
:10356000009000BF00BFFFF719FA0948006A012167
:10357000C903084306490862002211460220FFF7EA
:10358000E7F90220FFF7D8F938BD00000028004015
:1035900000100240FEB504460D46164600270020E6
:1035A0000190009000BF207F012801D10220FEBDC4
:1035B0000120207700BF02206077002E2AD12068EA
:1035C000806840210840002800D002E000202872D6
:1035D00000BFE869002800D100E000BF287801F0B2
:1035E0003EFE0304687801F03AFE00020343A87827
:1035F00001F035FE0343287A000403432021485D8F
:1036000001F02DFE00060343E869034368690343A4
:1036100001932FE02068806840210840002804D0F2
:10362000287801F00FFE019002E00020287200BF10
:10363000E869002805D12021485D01F003FE0190D2
:1036400005E02021485D01F0FDFD019000BF2878D4
:103650000004697809020843A9780843297A090413
:1036600008432021495D09060843E969084369695F
:1036700008430190A96968680843009000BFCA2008
:103680002168486253202168486200BF2068806832
:10369000FF2101318843216888602068C06880214B
:1036A0000840284908432168C860FEF705FE074620
:1036B00013E0FEF701FEC01B7D21C90088420CD932
:1036C00000BFFF202168486200BF0320607700BF71
:1036D0000020207700BF032069E72068C068C0078A
:1036E000C00F0028E5D001982168C86100982168C2
:1036F000486420688068FF210131084321688860A0
:1037000020688068012109030843216888600E4809
:1037100000680121490408430B4908600846806895
:103720000121490408430849886000BFFF2021683F
:10373000486200BF0120607700BF0020207700BFF3
:1037400000BF34E77FFEFFFF00040140F8B50446E8
:103750000D461646002700BF207F012801D1022018
:10376000F8BD0120207700BF02206077002E09D12C
:10377000687810210840102804D16878EF210840AB
:103780000A306870002E11D1E87801F068FD03045A
:10379000687801F064FD00020343A87801F05FFD42
:1037A00003432878400303431F4612E0687801F082
:1037B00049FD0746A87801F045FD0746E878000472
:1037C000697809020843A97808432978490308431E
:1037D000074600BFCA20216848625320216848621A
:1037E00000BF204601F048FD00280CD000BFFF209C
:1037F0002168486200BF0420607700BF0020207766
:1038000000BF0120ACE717483840216848602068B5
:10381000C068802188432168C860206880682021B2
:103820000840002811D1204600F0C0F800280CD034
:1038300000BFFF202168486200BF0420607700BFFE
:103840000020207700BF01208AE700BFFF20216809
:10385000486200BF0120607700BF0020207700BFD2
:1038600000BF7DE73FFFFF00F8B504460D46164652
:10387000002700BF207F012801D10220F8BD0120D0
:10388000207700BF02206077002E1BD1206880685F
:1038900040210840002800D002E00020287200BF2C
:1038A000287801F0DCFC0304687801F0D8FC000201
:1038B0000343A87801F0D3FC0343287A00040343B0
:1038C0001F4618E02068806840210840002804D086
:1038D000287801F0B7FC074602E00020287200BFFC
:1038E00028780004697809020843A9780843297AEE
:1038F00009040843074600BFCA20216848625320D4
:103900002168486200BF204601F0B6FC00280CD0B8
:1039100000BFFF202168486200BF0420607700BF1D
:103920000020207700BF0120A8E71F483840216809
:1039300008602068806801218904884321688860C4
:103940002969E86808432168896808432168886014
:103950002068C068802188432168C860206880682A
:1039600020210840002811D1204600F01FF800282F
:103970000CD000BFFF202168486200BF04206077A0
:1039800000BF0020207700BF012077E700BFFF20A5
:103990002168486200BF0120607700BF00202077C7
:1039A00000BF00BF6AE700007F7F7F0070B504465C
:1039B00000252068C068A02188432168C860FEF700
:1039C0007BFC054608E0FEF777FC401B7D21C90023
:1039D000884201D9032070BD2068C06820210840BA
:1039E0000028F0D00020F6E7042806D1064909692E
:1039F00004221143044A116105E0034909690422C4
:103A00009143014A1161704700E000E070470000F7
:103A100070B504462546681E0949884201D901202F
:103A20000CE0681E074948610321081F01F0CEFB26
:103A300000200449886107200861002070BD000053
:103A4000FFFFFF0000E000E010B5FFF7DFFF10BD53
:103A500070477047024600BF3820805C012801D1C2
:103A60000220704701233820835400BF02233920ED
:103A70008354106840687023984313685860106836
:103A800040680B681843136858601068806880238A
:103A9000984313689860106880684B6818431368EF
:103AA000986001233920835400BF002338208354B9
:103AB00000BF0020D5E710B50446002C01D101203D
:103AC00010BD3920005D002805D1002138200155A6
:103AD000204600F00DF8022139200155211D2068F3
:103AE00001F07EFC0121392001550020E8E70000AB
:103AF00038B504460D492068884215D100BF0C48EE
:103B00008069C91408430A49886108468069C91454
:103B10000840009000BF00BF002211460D20FEF7B4
:103B200017FF0D20FEF708FF38BD0000002C0140F4
:103B30000010024001460868C068012210430A686C
:103B4000D06008680068012210430A6810600020F5
:103B50007047F8B504460D46002600BF3820005DCA
:103B6000012801D10220F8BD01213820015500BFF4
:103B70000221392001552068866877213046884324
:103B80000646FF21090230468843064620688660C3
:103B9000286850283ED00CDC202863D004DC0028A4
:103BA00056D0102868D158E0302860D0402863D122
:103BB00044E0602838D070280DD001210903401A54
:103BC00002D0401A58D117E020688068C008C000B1
:103BD0002168886051E0EB686A68A968206801F094
:103BE00049FC20688668772130468843064677205E
:103BF00006432068866040E0EB686A68A968206830
:103C000001F038FC2068806801218903084321689D
:103C1000886032E0EA686968206801F047FC50215A
:103C2000206801F036FC28E0EA686968206801F045
:103C300058FC6021206801F02CFC1EE0EA686968ED
:103C4000206801F033FC4021206801F022FC14E0E0
:103C50000021206801F01DFC0FE01021206801F018
:103C600018FC0AE02021206801F013FC05E0302157
:103C7000206801F00EFC00E000BF00BF01213920E8
:103C8000015500BF00213820015500BF00206AE720
:103C9000704710B5044620680069022108404008BA
:103CA00000281CD02068C06808404008002816D0B2
:103CB000481F2168086101202076206880698007FC
:103CC000800F002803D02046FFF7E2FF05E02046E2
:103CD00000F0C3F8204600F0C1F8002020762068EC
:103CE000006904210840800800281DD02068C068B1
:103CF00008408008002817D0C843216808610220C6
:103D0000207620688069032109020840002803D03A
:103D10002046FFF7BDFF05E0204600F09EF8204654
:103D200000F09CF8002020762068006908210840F7
:103D3000C00800281CD02068C0680840C0080028BF
:103D400016D0C84321680861042020762068C06925
:103D50008007800F002803D02046FFF799FF05E079
:103D6000204600F07AF8204600F078F8002020760F
:103D70002068006910210840000900281DD0206833
:103D8000C06808400009002817D0C84321680861AE
:103D9000082020762068C069032109020840002815
:103DA00003D02046FFF774FF05E0204600F055F8E9
:103DB000204600F053F80020207620680069C007F4
:103DC000C00F01214840484000280CD02068C0683E
:103DD000084048404840002805D0C81E21680861B6
:103DE000204600F03DF82068006980210840C009A5
:103DF00000280BD02068C0680840C009002805D002
:103E0000C843216808612046FFF722FE2068006948
:103E100040210840800900280BD02068C068084075
:103E20008009002805D0C84321680861204600F0B9
:103E300035F82068006920210840400900280BD08F
:103E40002068C06808404009002805D0C8432168A0
:103E500008612046FFF7FDFD10BD70477047000068
:103E600010B504460A48006884420FD1094800781A
:103E700000280BD008480068401C0749086001234F
:103E80001A4608460168E62007F088F810BD0000D1
:103E9000D0000020D4000020CC000020704710B5D6
:103EA00004462068806880218843216888602068F3
:103EB00080684021884321688860206E002802D0F5
:103EC000206EFDF74BFE606E002802D0606EFDF79D
:103ED00045FE012169200155002010BD704710B535
:103EE0000446002C01D1012010BDA069002800D09B
:103EF00000E000BF6920005D002805D10021682096
:103F00000155204600F02CF8022169200155206857
:103F100000684008400021680860204601F0F6FB78
:103F2000012800D1E0E7606A002802D0204601F0B5
:103F30002CFB206840680921C90288432168486039
:103F4000206880682A21884321688860206800688A
:103F50000121084321680860204601F08EFBC3E779
:103F600010B586B004463D492068884237D100BF6D
:103F70003B48806901218903084339498861084623
:103F80008069012189030840009000BF00BF032021
:103F9000400201900220029001200390032004902F
:103FA0000120059001A90920C006FEF783F82D48DD
:103FB0002D4908600020486000212B488160802145
:103FC000C16000210161416120218161C901C1619C
:103FD000FDF728FF00BF2448606644623BE02349A8
:103FE0002068884237D100BF1D48C06901214904BB
:103FF00008431B49C8610846C069012149040840BB
:10400000009000BF00BF0C20019002200290012010
:104010000390032004900120059001A90920C00607
:10402000FEF748F80F482830114908600020486022
:1040300000210F4881608021C16000210161416140
:1040400020218161C901C161FDF7ECFE00BF084874
:104050006066446200BF06B010BD00000038014039
:1040600000100240300002405C0500200044004087
:1040700094050020F7B5044615466920005D012827
:1040800003D06920005D122841D10198002801D099
:10409000002D01D10120FEBD00BF6820005D012878
:1040A00001D10220F7E701216820015500BF0198E6
:1040B0006065582005530020E0666920005D1228E5
:1040C00003D132216920015502E0222169200155E6
:1040D0001048616E88621048616EC8620F48616E58
:1040E000086301AE32682368194624312B46606E9E
:1040F000FDF7C6FE2068806840210843216888607B
:1041000000BF00216820015500BF0020C3E7022046
:10411000C1E70000BB560008FD5600089556000890
:1041200070477047FFB581B004460D4616466920BA
:10413000005D012803D06920005D222867D1002D91
:1041400001D0002E02D1012005B0F0BD00BF6820D3
:10415000005D012801D10220F6E701216820015508
:1041600000BF0020E0666920005D222803D13221D3
:104170006920015502E012216920015550200653A3
:104180005220065323E05220005B401E81B2522091
:104190000153002280212046049B01F093FB00285C
:1041A00001D00320D0E701210903A06888420AD189
:1041B0002069002807D12F463888C005C00D216826
:1041C0000885AD1C03E028786D1C21680885522005
:1041D000005B0028D7DC002240212046049B01F030
:1041E00071FB002801D00320AEE76920005D322872
:1041F00003D122216920015502E0012169200155E6
:1042000000BF00216820015500BF00209CE702206C
:104210009AE7000070B504460D460026FEF74CF8FC
:1042200006462068806910210840000900284CD00B
:104230003520005D122807D03520005D522803D0BC
:104240003520005D62280CD12068406801214906B4
:104250000840884205D020684068C9120843216898
:10426000486013E0681C002810D0002D04D0FEF731
:1042700023F8801BA84209D901213520015500BF30
:1042800000213420015500BF032070BD20688069E3
:104290002021084040090028E4D010202168C8618E
:1042A00020202168C86120684068094908402168C9
:1042B00048600420A06301213520015500BF002182
:1042C0003420015500BF0120DFE70020DDE70000BA
:1042D00000E800FEFFB581B0044615461E460A9F61
:1042E00001204003F2B2C30200902046029900F080
:1042F00037F83946204600F0CEF8002807D0A06BEA
:10430000042802D1012005B0F0BD0320FBE7012EF7
:1043100003D1E8B22168886215E0FF20000228403E
:104320000012216888623946204600F0B4F800285F
:1043300006D0A06B042801D10120E4E70320E2E7C6
:10434000E8B2216888623B4600228021204600F0C6
:104350001FF8002801D00320D5E70020D3E7000094
:10436000F0B50C46002105686968084D2940A5058F
:10437000AD0D1604FF273F043E4035431D43059E07
:104380003543294305686960F0BD0000009800FCD2
:10439000FFB581B004460E461D46FDF78DFF07466A
:1043A0000398002824D114E0681C002811D0002DA7
:1043B00004D0FDF781FFC01BA8420AD90121352096
:1043C000015500BF00213420015500BF032005B076
:1043D000F0BD20688069F103C90B0840F103C90BE7
:1043E000884201D1012000E000200028DCD022E03A
:1043F00013E0681C002810D0002D04D0FDF75CFFEE
:10440000C01BA84209D901213520015500BF002158
:104410003420015500BF0320D9E720688069F103EB
:10442000C90B0840F103C90B884201D1012000E00B
:1044300000200028DDD10020C9E770B504460D46F4
:104440000026FDF739FF06461CE029462046FFF707
:10445000E1FE002801D0012070BD002D04D0FDF741
:104460002BFF801BA8420DD9A06B20210843A0631D
:1044700001213520015500BF00213420015500BF26
:104480000320E9E7206880692021084040090028CE
:10449000DBD00020E0E770B504460D46FDF70CFFC9
:1044A00006461FE029462046FFF7B4FE002801D04B
:1044B000012070BD681C002814D0002D04D0FDF729
:1044C000FBFE801BA8420DD9A06B20210843A063EE
:1044D00001213520015500BF00213420015500BFC6
:1044E0000320E6E720688069022108404008002890
:1044F000D8D00020DDE7000010B5002409E02046F8
:10450000FF304D30002102F020FE0A490855601CA2
:10451000C4B2082CF3DB002409E093218900601861
:10452000002102F012FE04490855601CC4B2042C9C
:10453000F3DB10BD330000203B00002070B50346C4
:104540000024002010E00D5C461C8E5D36023543D1
:10455000861C8E5D36043543C61C8E5D360635439B
:10456000A6009D51641C001D9042ECD370BD70B537
:10457000034614460022002015E095004D5D1D54B1
:1045800095004D5B2D042D0E461C9D5595004D59F3
:104590002D022D0E861C9D5595004D592D0EC61CC5
:1045A0009D55521C001DA042E7D370BDFEB50446C8
:1045B0000E46002500272088C005850E382D02D222
:1045C0003820401B01E07820401B07460822214686
:1045D0006846FFF7CCFF3A460749204600F056FCF4
:1045E00008226946204600F051FC1022214608317D
:1045F0003046FFF7BCFFFEBD300100200021016006
:10460000416005498160054AC260CA430261034AAC
:10461000D2434261704700000123456789ABCDEF6B
:10462000F3B5C0B0409804684098456840988668E3
:104630004098C768402268464199FFF77FFF2846A7
:1046400030403946A943084300994018FE494018B4
:104650000419E001610E084304466419204628400D
:104660003146A143084301994018F8494018C71939
:104670003803390D084307463F193846204029467C
:10468000B943084302994018F1494018861970044B
:10469000F10B08430646F619304638402146B1432F
:1046A000084303994018EB4940184519A805A90A81
:1046B00008430546AD19284630403946A94308430A
:1046C00004994018E44940180419E001610E0843B8
:1046D00004466419204628403146A1430843059901
:1046E0004018DE494018C7193803390D08430746FA
:1046F0003F19384620402946B943084306994018D7
:10470000D749401886197004F10B08430646F6197C
:10471000304638402146B143084307994018D149F3
:1047200040184519A805A90A08430546AD192846A9
:1047300030403946A943084308994018CA494018EF
:104740000419E001610E084304466419204628401C
:104750003146A143084309994018C4494018C71974
:104760003803390D084307463F193846204029468B
:10477000B94308430A994018BD4940188619700486
:10478000F10B08430646F619304638402146B1433E
:1047900008430B994018B74940184519A805A90ABC
:1047A00008430546AD19284630403946A943084319
:1047B0000C994018B04940180419E001610E0843F3
:1047C00004466419204628403146A14308430D9908
:1047D0004018AA494018C7193803390D084307463D
:1047E0003F19384620402946B94308430E994018DE
:1047F000A349401886197004F10B08430646F619C0
:10480000304638402146B14308430F9940189D492E
:1048100040184519A805A90A08430546AD192846B8
:1048200038403146B9430843019940189649401829
:1048300004196001E10E0843044664192046304023
:104840002946B14308430699401890494018C719B2
:104850007802F90D084307463F193846284021469B
:10486000A94308430B994018894940188619B00399
:10487000B10C08430646F619304620403946A1439C
:104880000843009940188349401845192805290B09
:1048900008430546AD19284638403146B943084318
:1048A000059940187C49401804196001E10E08433D
:1048B00004466419204630402946B14308430A990A
:1048C000401876494018C7197802F90D0843074681
:1048D0003F19384628402146A94308430F994018FC
:1048E0006F4940188619B003B10C08430646F61903
:1048F000304620403946A14308430499401869498D
:10490000401845192805290B08430546AD192846C6
:1049100038403146B9430843099940186249401864
:1049200004196001E10E0843044664192046304032
:104930002946B14308430E9940185C494018C719ED
:104940007802F90D084307463F19384628402146AA
:10495000A943084303994018554940188619B003E4
:10496000B10C08430646F619304620403946A143AB
:104970000843089940184F49401845192805290B44
:1049800008430546AD19284638403146B943084327
:104990000D9940184849401804196001E10E084378
:1049A00004466419204630402946B1430843029921
:1049B000401842494018C7197802F90D08430746C4
:1049C0003F19384628402146A94308430799401813
:1049D0003B4940188619B003B10C08430646F61946
:1049E000304620403946A14308430C9940183549C8
:1049F000401845192805290B08430546AD192846D6
:104A000070407840059940182F494018041920013A
:104A1000210F0843044664192046684070400899F5
:104A200040182A494018C719F802790D084307466B
:104A30003F193846604068400B9940182449401897
:104A400086193004310C45E078A46AD756B7C7E818
:104A5000DB702024EECEBDC1AF0F7CF52AC68747A0
:104A6000134630A8019546FDD8988069AFF7448B6E
:104A7000B15BFFFFBED75C892211906B937198FDEB
:104A80008E4379A62108B44962251EF640B340C082
:104A9000515A5E26AAC7B6E95D102FD653144402B8
:104AA00081E6A1D8C8FBD3E7E6CDE121D60737C31D
:104AB000870DD5F4ED145A4505E9E3A9F8A3EFFCF9
:104AC000D9026F678A4C2A8D4239FAFF81F67187C5
:104AD00022619D6D08430646F619304678406040D5
:104AE0000E994018CC4940184519E805690A084351
:104AF0000546AD1928467040784001994018C749CD
:104B0000401804192001210F084304466419204667
:104B10006840704004994018C1494018C719F8020C
:104B2000790D084307463F193846604068400799A9
:104B30004018BC49401886193004310C0843064619
:104B4000F6193046784060400A994018B649401836
:104B50004519E805690A08430546AD19284670401D
:104B600078400D994018B149401804192001210FCF
:104B70000843044664192046684070400099401874
:104B8000AB494018C719F802790D084307463F1989
:104B900038466040684003994018A6494018861975
:104BA0003004310C08430646F61930467840604020
:104BB00006994018A04940184519E805690A0843B4
:104BC0000546AD19284670407840099940189B4920
:104BD000401804192001210F084304466419204697
:104BE000684070400C99401895494018C719F80260
:104BF000790D084307463F193846604068400F99D1
:104C000040189049401886193004310C0843064674
:104C1000F619304678406040029940188A49401899
:104C20004519E805690A08430546AD192846F943C0
:104C30000843704000994018844940180419A001A5
:104C4000A10E0843044664192046F1430843684016
:104C5000079940187E494018C719B802B90D084392
:104C600007463F193846E943084360400E9940180B
:104C7000784940188619F003710C08430646F61966
:104C80003046E1430843784005994018724940187E
:104C900045196805E90A08430546AD192846F94350
:104CA000084370400C9940186C4940180419A00141
:104CB000A10E0843044664192046F14308436840A6
:104CC0000399401866494018C719B802B90D08433E
:104CD00007463F193846E943084360400A9940189F
:104CE000604940188619F003710C08430646F6190E
:104CF0003046E14308437840019940185A4940182A
:104D000045196805E90A08430546AD192846F943DF
:104D10000843704008994018544940180419A001EC
:104D2000A10E0843044664192046F1430843684035
:104D30000F9940184E494018C719B802B90D0843D9
:104D400007463F193846E943084360400699401832
:104D5000484940188619F003710C08430646F619B5
:104D60003046E143084378400D99401842494018C5
:104D700045196805E90A08430546AD192846F9436F
:104D800008437040049940183C4940180419A00198
:104D9000A10E0843044664192046F14308436840C5
:104DA0000B99401836494018C719B802B90D084385
:104DB00007463F193846E9430843604002994018C6
:104DC000304940188619F003710C08430646F6195D
:104DD0003046E14308437840099940182A49401871
:104DE00045196805E90A08430546AD194098006869
:104DF000011940980160409840684119409841600D
:104E0000409880688119409881604098C068C119B5
:104E10004098C16042B0F0BD0C38E5FD44EABEA444
:104E2000A9CFDE4B604BBBF670BCBFBEC67E9B28D5
:104E3000FA27A1EA8530EFD4051D880439D0D4D9EA
:104E4000E599DBE6F87CA21F6556ACC4442229F440
:104E500097FF2A43A72394AB39A093FCC3595B6502
:104E600092CC0C8F7DF4EFFFD15D84854F7EA86FCF
:104E7000E0E62CFE144301A3A111084E827E53F7F5
:104E800035F23ABDBBD2D72A91D386EBFEB50446A4
:104E90000F46154600260020029001902088C0058C
:104EA000800E029040210298081A0190E9002068C3
:104EB00040182060E9002068884202D26068401CE7
:104EC0006060690F606840186060019885421CD37B
:104ED00021461831029A88183946019AFBF72FF9B2
:104EE0002146183120460830FFF79AFB019E05E065
:104EF000B91920460830FFF793FB40363046403062
:104F0000A842F5D90020029000E00026AA1BB9199A
:104F100020461830029BC0180090FBF710F9FEBD28
:104F20000EB513481349086000204860002111485D
:104F30008160C1600121016108214161002181611D
:104F4000C1610121016200214162C162016301214D
:104F50004163FCF77FFC00200090012000030190DA
:104F60000720029069460348FCF7AAFB0EBD00002B
:104F7000002401409C03002008B500BF0A48406996
:104F8000012108430849486108464069C007C00F2D
:104F9000009000BF00BF002211460920FDF7D8FC99
:104FA0000920FDF7C9FC08BD0010024000B587B01C
:104FB00000BF364840690121C904084333494861AC
:104FC000084640690121C9040840019000BF00BFA4
:104FD00000BF2E484069C90008432C494861084673
:104FE0004069012189050840019000BF00BF00BF52
:104FF00026484069491108432449486108464069E8
:10500000012149040840019000BF00BF00BF1F48B4
:105010004069490008431D4948610846406901212B
:1050200089040840019000BF00BFC8100290012011
:10503000039000200490059002A91548FDF73AF866
:10504000022002900120039000200490059002A904
:105050001048FDF72FF80220029001200390002055
:105060000490059002A90920C006FDF723F80D2041
:10507000000302900120039000200490059002A9F3
:105080000548FDF717F807B000BD0000001002400A
:1050900000080048001400480004004810B50B4800
:1050A0000B4908600B4848600021094881600121D4
:1050B000C1600021016141618161C1610162FDF74F
:1050C00049F900210248FDF7FDF810BD00580040E5
:1050D000200400200E09002010B509480949086085
:1050E000002048607F2107488160FF213A31C1607C
:1050F0000021016141618161FEF7C2F910BD00002C
:10510000002800405C04002000B587B00F4810491B
:1051100008602F20486000210D4881606321C16034
:10512000002101614161FEF7C6FC012000030390EC
:1051300003A90748FEF70DFD00200190029001A988
:105140000348FEF787FC07B000BD0000002C0140BB
:10515000A801002010B50C480C490860E12040026D
:105160004860002109488160C16001610C214161F2
:1051700000218161C1610162002004494862084642
:10518000FEF7ADFE10BD0000003801407C04002099
:1051900010B50C480C490860E1204002486000212D
:1051A00009488160C16001610C2141610021816178
:1051B000C16101620020044948620846FEF78FFE83
:1051C00010BD000000440040EC04002010B5002891
:1051D00019DA1A4A03071B0F083B9B089B00D25899
:1051E0008307DC0EFF23A3409A438B071B0E840723
:1051F000E40EA3401A43114B0407240F083CA408F3
:10520000A4001A5118E00E4A03231B02D218830887
:105210009B00D2588307DC0EFF23A3409A438B07E1
:105220001B0E8407E40EA3401A43054B03242402FB
:105230001B198408A4001A5110BD00001CED00E0E9
:1052400000E100E0014600BFF020084000110A2301
:10525000584302460807000F8018C0B27047014645
:10526000002203E0521C08460A38C1B20A29F9DAC2
:105270001007000E0843704770B5044600252068EB
:10528000C06840210840002815D1401E2168C86030
:10529000FDF712F8054608E0FDF70EF8401B7D21EA
:1052A000C900884201D9032070BD2068C068402130
:1052B00008400028F0D00020F6E7000010B50220DA
:1052C000FDF72EFB0148FEF7B5F810BD5C04002089
:1052D00010B5FDF7E1FAFEF7B7FB10BD30B595B09C
:1052E0001A20089001200B900D9010200C900E9029
:1052F0000120109002201190002112910521C90473
:1053000013910021149108A8FDF7BCFD0120049021
:1053100002200590002006900790012104A8FDF7C7
:10532000FFFB0C48009000200290012040020190F9
:105330006846FDF761FBFDF71BFD05467D21C900B1
:10534000FAF7D0FE0446FEF763FB0420FEF74CFBA1
:1053500015B030BD01000100194800680121084363
:1053600017490860084640681649084014494860D3
:10537000084600681449084011490860084600685A
:105380000121890488430E490860084640683F218E
:10539000090488430A4948600846C06A00090001B8
:1053A000C8620846006BFF21143188430449086332
:1053B0000846406B40084000486300208860704702
:1053C000001002400CB8FF08FFFFF6FE10B50D20DC
:1053D000FDF7A6FA0148FEF75CFC10BDA80100200D
:1053E00010B5002202681D4B984202D01C4B984217
:1053F00005D170241346A3431A464B681A43174B32
:1054000098420ED0164B98420BD0164B984208D0BB
:10541000154B984205D0154B984202D0144B984238
:1054200006D1032424021346A3431A46CB681A4329
:1054300002608B68C3620B688362084B984208D095
:10544000094B984205D0094B984202D0084B98422C
:1054500001D10B6903630123436110BD002C01409E
:105460000004004000200040004001400044014092
:105470000048014070B50C4600218168FF263602C5
:105480000D46B54329461D02154325432943816036
:1054900070BD10B50A460021816870240B46A343F5
:1054A0001946072313431943816010BD70B50B469D
:1054B000144600210022026A056A6D086D0005622B
:1054C0008169F0260D46B5432946250129430A2660
:1054D0001546B5432A4615461D432A468161026298
:1054E00070BD70B50B46144600210022056A1026D7
:1054F000B54305628169026A0F2636030D46B5433E
:10550000294625032943A0261546B5432A461D01F1
:105510002A438161026270BDC1B2054A118100BF98
:1055200003492039C969402211400029F8D0704749
:1055300020440040F8B50746002414E00720001B73
:1055400081003846C84005072D0F092D03DD284688
:105550003730C6B202E028463030C6B23046FFF7D8
:10556000DBFF601C84B2082CE8DBF8BD70B5044694
:1055700008E02578641C002D00D104E02846FFF7E0
:10558000CBFF00BFF5E700BF70BD818CC907C90F15
:10559000002908D001684968012252049143826AB7
:1055A0001143026851600222416A1140002907D06C
:1055B00001684968D2039143C26A1143026851608D
:1055C0000422416A1140002907D001684968120489
:1055D0009143026B1143026851600822416A1140F5
:1055E000002907D00168496812039143426B1143B7
:1055F000026851601022416A1140002907D00168F9
:10560000896812029143826B1143026891602022E3
:10561000416A1140002907D001688968120291434C
:10562000C26B1143026891604022416A1140002917
:1056300015D00168496892039143026C11430268D6
:10564000516001221205016C914208D1016849683C
:10565000032252059143426C11430268516080223B
:10566000416A1140002907D001684968120391433B
:10567000826C114302685160704701460020C86681
:1056800001226920425400BF00226820425400BF1A
:105690000020704770B505466C6A00215A200153FE
:1056A00052200153012169200155E06E1021084369
:1056B000E0662046FEF712FC70BD70B505466C6AC8
:1056C0002868006820210840002813D100215A20B2
:1056D00001532068806840218843216888606920E0
:1056E000005D322803D112216920015502E0012119
:1056F000692001552046FEF713FD70BD70B50446C4
:10570000656A2846FEF70DFD70BD0000FEB5044633
:105710000025102600270020029001902169A06832
:10572000084361690843E169084305462068006849
:105730005D490840284321680860206840680321CB
:1057400009038843E168084321684860216AA06929
:1057500008430546206880680B21090288432843D6
:105760002168886000BF51492068884217D150489D
:10577000006B8007800F002806D0012808D002287F
:1057800008D0032808D101E0002607E0022605E042
:10579000042603E0082601E0102600BF06E0454984
:1057A0002068884201D1002600E0102600BF0121B8
:1057B000C903E06988423FD1042E1BD004DC002ECF
:1057C00007D0022E28D10EE0082E1DD0102E23D196
:1057D00023E0FDF7E3FA400000906168FAF782FCED
:1057E00080B202901CE034486168FAF77BFC80B21A
:1057F000029015E0FDF7E4FA400000906168FAF7C6
:1058000071FC80B202900BE0012000046168FAF79D
:1058100069FC80B2029003E000BF0120019000BF4C
:1058200000BF264902980840074602980007400F2B
:1058300007432068C76035E0042E1CD004DC002E2E
:1058400007D0022E29D10EE0082E1ED0102E24D112
:1058500024E0FDF7A3FA00906168FAF743FC80B2F8
:105860002168C8601DE016486168FAF73BFC80B209
:105870002168C86015E0FDF7A3FA00906168FAF7A7
:1058800031FC80B22168C8600BE00120C003616870
:10589000FAF728FC2168C86003E000BF01200190EE
:1058A00000BF00BF0198FEBDF369FFFF0038014053
:1058B00000100240004400400024F400F0FF00000B
:1058C00000127A00FFB581B004460E461D46FCF773
:1058D000F3FC07460398002839D12DE0681C002806
:1058E0002AD0002D04D0FCF7E7FCC01BA84223D926
:1058F000206800688021884321680860206800686B
:10590000202188432168086020680068FF21013158
:10591000884321680860206880684008400021684A
:10592000886001216920015500BF002168200155D0
:1059300000BF032005B0F0BD2068C0693040B04210
:1059400001D1012000E000200028C7D037E02CE082
:10595000681C002829D0002D04D0FCF7ADFCC01B2A
:10596000A84222D920680068802188432168086005
:10597000206800682021884321680860206800684A
:10598000FF21013188432168086020688068400851
:1059900040002168886001216920015500BF002175
:1059A0006820015500BF0320C4E72068C06930406B
:1059B000B04201D1012000E000200028C8D1002021
:1059C000B8E700000FB410B503A9044B044A0298CD
:1059D00000F0BEF910BC08BC04B01847D57200082E
:1059E000740100200FB410B504A9074B02AA039854
:1059F00000F0AEF9044602A9002000F050FD204658
:105A000010BC08BC04B018479F6400087CB51C4655
:105A10001546491E01910090044B6A4621462846CE
:105A200000F096F9009A002111707CBD896400088D
:105A30002021020C01D010211046020A01D010468C
:105A40000839020901D01046091F820801D010460A
:105A5000891E420801D0881E7047081A704730B46A
:105A60007446641E2578641CAB4204D3635D5B00FE
:105A7000E31830BC18471D46F8E700004900CA0289
:105A80000243100000D004204A0D01D0012210432F
:105A9000044A490D914201D102210843012800D155
:105AA00005207047FF070000004870478001002074
:105AB000F8B504464F1EC8000838211815461E4682
:105AC000086849683A4606239A4310D02A46334666
:105AD000FAF764FD3A46D200083AA3181A687F1E06
